:100000000C945F000C9487000C9487000C9487007C
:100010000C9487000C9487000C9487000C94870044
:100020000C9487000C9487000C9487000C94870034
:100030000C9487000C9487000C9487000C94870024
:100040000C94D4030C944C050C9496030C947003FC
:100050000C9487000C9487000C9487000C94870004
:100060000C941E040C94870000000000240027005C
:100070002A005244590000000000250028002B00EF
:10008000040404040404040402020202020203033E
:100090000303030301020408102040800102040846
:1000A00010200102040810200000000800020100D6
:1000B000000304070000000000000000CE0B112424
:1000C0001FBECFEFD8E0DEBFCDBF24E0A0EAB1E095
:1000D00001C01D92A73DB207E1F711E0A0E0B1E039
:1000E000E8EBFCE102C005900D92A03AB107D9F708
:1000F00010E0CFE5D0E004C02197FE010E94290E58
:10010000CE35D107C9F70E948D060C945A0E0C9477
:100110000000CF92DF92EF92FF920F931F93CF9345
:10012000DF936C017A018B01C0E0D0E0CE15DF05D2
:1001300089F0D8016D918D01D601ED91FC9101906E
:10014000F081E02DC6010995892B11F47E0102C0D2
:100150002196ECCFC701DF91CF911F910F91FF90B6
:10016000EF90DF90CF900895FC01538D448D252FA3
:1001700030E0842F90E0821B930B541710F0CF9641
:10018000089501970895FC01918D828D981761F073
:10019000828DDF01A80FB11D5D968C91928D9F5FBE
:1001A0009F73928F90E008958FEF9FEF0895FC0169
:1001B000918D828D981731F0828DE80FF11D858D1C
:1001C00090E008958FEF9FEF0895FC01918D228DAF
:1001D000892F90E0805C9F4F821B91098F73992734
:1001E00008958CE294E00E94E50021E0892B09F457
:1001F00020E0822F0895FC01848DDF01A80FB11D3E
:10020000A35ABF4F2C91848D90E001968F7399274C
:10021000848FA689B7892C93A089B1898C91806439
:100220008C93938D848D981306C00288F389E02DFA
:1002300080818F7D80830895EF92FF920F931F93AB
:10024000CF93DF93EC0181E0888F9B8D8C8D981389
:1002500005C0E889F989808185FD24C0F62E0B8DC3
:1002600010E00F5F1F4F0F731127E02E8C8DE812E7
:100270000CC00FB607FCFACFE889F989808185FFA9
:10028000F5CFCE010E94FB00F1CF8B8DFE01E80F70
:10029000F11DE35AFF4FF0820B8FEA89FB898081C1
:1002A000806207C0EE89FF896083E889F9898081CF
:1002B0008064808381E090E0DF91CF911F910F9166
:1002C000FF90EF900895CF93DF93EC01888D882302
:1002D000C9F0EA89FB89808185FD05C0A889B989B3
:1002E0008C9186FD0FC00FB607FCF5CF808185FF8E
:1002F000F2CFA889B9898C9185FFEDCFCE010E94FC
:10030000FB00E7CFDF91CF91089580E090E0892B4B
:1003100029F00E94F10081110C94000008953FB76C
:10032000F8948091380290913902A0913A02B091EC
:100330003B0226B5A89B05C02F3F19F00196A11DD1
:10034000B11D3FBFBA2FA92F982F8827820F911D6B
:10035000A11DB11DBC01CD0142E0660F771F881FB2
:10036000991F4A95D1F708958F929F92AF92BF92AD
:10037000CF92DF92EF92FF926B017C010E948F017E
:100380004B015C01C114D104E104F104F1F00E94BD
:100390008F01DC01CB0188199909AA09BB09883EA4
:1003A0009340A105B10570F321E0C21AD108E1081C
:1003B000F10888EE880E83E0981EA11CB11CC114C0
:1003C000D104E104F10419F7DDCFFF90EF90DF9045
:1003D000CF90BF90AF909F908F90089585ED8093C0
:1003E000BC008091BC0084FDFCCF10929E02089559
:1003F00040910E02262F30E0240F311D21323105AD
:10040000DCF420919E022430C9F4FC0180E090E0ED
:10041000861758F430910E022191DC01A451BE4F91
:10042000A30FB11D2C930196F3CF80910E02680F9C
:1004300060930E0280E0089581E0089582E00895BF
:100440000895E0913D0280913C02E81730F4F0E01D
:10045000E453FE4F808190E008958FEF9FEF089561
:1004600090913D0280913C02981750F4E92FF0E002
:10047000E453FE4F208130E09F5F90933D0202C025
:100480002FEF3FEFC901089580913C0290E0209149
:100490003D02821B91090895CF92DF92EF92FF9265
:1004A0000F931F93CF93DF937C01262F972F8A0101
:1004B00080919F02882391F0C62FD72F6E01C40E22
:1004C000D51ECC15DD0571F06991D701ED91FC9138
:1004D0000190F081E02DC7010995F3CF642F822FA1
:1004E0000E94F801C801DF91CF911F910F91FF90F9
:1004F000EF90DF90CF900895CF93DF931F92CDB709
:10050000DEB7698320919F022223D1F02091C2029D
:10051000203240F021E030E0FC013383228380E090
:1005200090E015C08091A002E82FF0E0EF55FD4F5C
:10053000998190838F5F8093A0028093C20205C04F
:1005400061E0CE0101960E94F80181E090E00F90F9
:10055000DF91CF910895089580E090E00895EF92A3
:10056000FF921F93CF93DF9300D000D01F92CDB79F
:10057000DEB780E0E82E81E0F82E10E04AE0BE0110
:100580006F5F7F4FF701819191917F010E94510C24
:10059000BE016F5F7F4F83EA91E0111103C00E949B
:1005A000530E02C00E94340E6CE571E083EA91E0C4
:1005B0000E94340E1F5F1E3009F769E671E083EA7E
:1005C00091E00F900F900F900F900F90DF91CF91CF
:1005D0001F91FF90EF900C94340E80919E02811138
:1005E000FCCF81E080939E0280939D029FEF9093C9
:1005F0009C0210929B0210929A0280937902809141
:10060000790284608093790280917802813061F46C
:1006100010927802809179028093BB008091BC0097
:1006200083FDF8CF85EC01C085EE8093BC008091FE
:100630009E028130E1F380919B02811103C0809181
:100640009B0201C081E0AAE7B2E02CEC31E0F901A5
:100650009E2F921B981718F49D919193F9CF1092A9
:100660003D0280933C02E3E2F0E03197F1F788230A
:10067000F1F089EC94E00E943002863051F410923F
:10068000150110921401109213011092120181E0D1
:100690000895863459F481E090E09093130180939B
:1006A000120110921501109214010895089580E02E
:1006B00008950E942F0E6115710579F0FB010190DC
:1006C0000020E9F73197AF01461B570BDC01ED9194
:1006D000FC910280F381E02D099480E090E0089580
:1006E0001F920F920FB60F9211242F933F934F93A7
:1006F0005F936F937F938F939F93AF93BF93EF938A
:10070000FF938CE294E00E94FB00FF91EF91BF9178
:10071000AF919F918F917F916F915F914F913F9199
:100720002F910F900FBE0F901F9018951F920F9250
:100730000FB60F9211242F938F939F93EF93FF93F4
:10074000E0913C04F0913D048081E0914204F091FD
:10075000430482FD12C09081809145048F5F8F73A6
:1007600020914604821751F0E0914504F0E0E45DE9
:10077000FB4F958F8093450401C08081FF91EF91DD
:100780009F918F912F910F900FBE0F901F901895F2
:100790002FB7F8946091340270913502809136023F
:1007A000909137022FBF08951F920F920FB60F92AC
:1007B00011242F933F938F939F93AF93BF93809177
:1007C000340290913502A0913602B09137023091F7
:1007D000330223E0230F2D3720F40196A11DB11D14
:1007E00005C026E8230F0296A11DB11D20933302F8
:1007F0008093340290933502A0933602B09337026F
:100800008091380290913902A0913A02B0913B0256
:100810000196A11DB11D8093380290933902A093D7
:100820003A02B0933B02BF91AF919F918F913F915C
:100830002F910F900FBE0F901F9018951F920F923F
:100840000FB60F9211242F933F934F935F936F93A3
:100850007F938F939F93AF93BF93EF93FF93809179
:10086000B900887F803609F49CC068F5883209F4A5
:100870005BC090F4803109F454C038F4882309F443
:10088000F6C0883009F44DC0F6C0883109F44CC078
:10089000803209F45DC0EFC0803409F468C048F4C8
:1008A000803309F455C0883309F0E5C080939C0279
:1008B000D8C0803509F44FC0883509F45DC088344C
:1008C00009F0D9C0D6C0883909F4C7C0A8F4883760
:1008D00009F467C038F4883609F463C0803709F436
:1008E00060C0C9C0883809F4B8C0803909F45FC055
:1008F000803809F0C0C05BC0803B09F486C038F482
:10090000803A09F466C0883A09F47FC0B4C0803CDC
:1009100009F4A7C0883C09F4A4C0883B09F48AC044
:10092000AAC08091790210C090919B0280919A0296
:10093000981770F5E0919B0281E08E0F80939B02E7
:10094000F0E0E658FD4F80818093BB0085EC86C0C7
:1009500080939C028EC0E0919B0281E08E0F809379
:100960009B028091BB00F0E0E658FD4F80839091A0
:100970009B0280919A026EC0E0919B0281E08E0FF3
:1009800080939B028091BB00F0E0E658FD4F80838E
:1009900080919D0281116DC081E08093780284EA8C
:1009A00061C083E080939E0210923202CFCF80918B
:1009B0003202803208F051C0E091320281E08E0FA5
:1009C000809332028091BB00F0E0EE5EFD4F8083A9
:1009D000BDCF85EC8093BC0010929E0280913202C4
:1009E000803230F4E0913202F0E0EE5EFD4F108292
:1009F0006091320270E0E0911002F091110282E108
:100A000092E009951092320236C084E080939E02F3
:100A100010920F0210920E02E0910C02F0910D0262
:100A2000099580910E02811105C081E080930E022C
:100A30001092EC01E0910F0281E08E0F80930F0283
:100A4000F0E0E451FE4F80818093BB0090910F0253
:100A500080910E02981708F479CF85E88093BC0046
:100A60000AC085EC8093BC0010929E0204C01092D4
:100A70009C020E94EE01FF91EF91BF91AF919F9177
:100A80008F917F916F915F914F913F912F910F9037
:100A90000FBE0F901F9018951F920F920FB60F92D6
:100AA00011242F933F934F935F938F939F93EF93D3
:100AB000FF938EB52091C3023091C4022C343105CE
:100AC00024F01092C4021092C3028130C9F48093C2
:100AD00035038093A2011092A1011092A001809190
:100AE000A0019091A1019C012F5F3F4F3093A10184
:100AF0002093A001FC01ED55FE4F80818EBD37C0D3
:100B0000882389F08A3079F02091C3023091C402A1
:100B1000A9014F5F5F4F5093C4024093C302F90194
:100B2000E751FD4F80838091A201811102C01EBC5C
:100B30001EC0E091A001F091A101ED55FE4F808112
:100B40008EBDE091A001F091A101ED55FE4F808195
:100B50008A3059F08091A0019091A1010196909363
:100B6000A1018093A001899710F01092A201FF913A
:100B7000EF919F918F915F914F913F912F910F90A6
:100B80000FBE0F901F9018950F931F93CF93DF9375
:100B9000EC016CE571E08DE793E00E94250C2CE000
:100BA0002C9F80012D9F100D1124C0E0D0E00097F4
:100BB00089F00E94070CFE01E00FF11FE855FC4F81
:100BC000918380836CE571E080E090E00E94250CC9
:100BD0002296EDCFDF91CF911F910F91089590E074
:100BE000FC01E855FF4F2491FC01EC56FF4F349176
:100BF000FC01E058FF4FE491EE23B1F1222339F1DB
:100C0000233091F038F42130A9F0223001F584B579
:100C10008F7D12C0273091F02830A1F02430B9F434
:100C2000809180008F7D03C0809180008F778093BA
:100C300080000DC084B58F7784BD09C08091B0005D
:100C40008F7703C08091B0008F7D8093B000F0E07B
:100C5000EE0FFF1FEA58FF4FA591B4918FB7F8949C
:100C6000EC913E2B3C938FBF08958F929F92AF9251
:100C7000BF92EF92FF920F931F93CF93DF937B016D
:100C80008C01C0E0D0E0CE15DF05D9F10E94C80389
:100C90006093340470933504809336049093370442
:100CA000E0912C04F0912D040284F385E02D8CE278
:100CB00094E0099597FD08C08A30910511F1F8017B
:100CC00081938F012196DFCF0E94C8038090340466
:100CD00090903504A0903604B0903704DC01CB012D
:100CE00088199909AA09BB098090300490903104B1
:100CF000A0903204B090330488159905AA05BB056D
:100D000078F2CE01DF91CF911F910F91FF90EF907C
:100D1000BF90AF909F908F900895CF93DF93CDB702
:100D2000DEB7AE970FB6F894DEBF0FBECDBF789496
:100D300084B5826084BD84B5816084BD85B58260E0
:100D400085BD85B5816085BD80916E008160809391
:100D50006E001092810080918100826080938100FA
:100D6000809181008160809381008091800081600A
:100D7000809380008091B10084608093B100809165
:100D8000B00081608093B00080917A00846080938D
:100D90007A0080917A00826080937A0080917A0054
:100DA000816080937A0080917A00806880937A00D5
:100DB0001092C100E0913C04F0913D0482E08083F8
:100DC000E0913804F09139041082E0913A04F091F6
:100DD0003B0487E0808310924404E0914004F0914A
:100DE000410486E08083E0913E04F0913F048081DD
:100DF00080618083E0913E04F0913F0480818860AF
:100E00008083E0913E04F0913F048081806880837C
:100E1000E0913E04F0913F0480818F7D808381E0EA
:100E200090E0A0E0B0E08093300490933104A09370
:100E30003204B093330464E170E080E090E00E94FB
:100E4000B4016EE571E08CE294E00E945B0368E619
:100E500071E08CE294E00E945B0364E670E080E065
:100E600090E00E94B4018AE090E0A0E0B0E08093BE
:100E7000300490933104A0933204B0933304109261
:100E80003D0210923C021092A0021092C2021092F7
:100E90009E0281E080939D021092780282E10E947E
:100EA000EF0583E10E94EF058091B9008E7F80936A
:100EB000B9008091B9008D7F8093B90088E4809358
:100EC000B80085E48093BC00E0EAF0E02491ECE80F
:100ED000F0E08491882399F090E0880F991FFC013D
:100EE000E859FF4FA591B491FC01EA58FF4F859155
:100EF00094918FB7F894EC91E22BEC938FBF109202
:100F0000C4021092C302109235038CB580648CBD6C
:100F10008CB580688CBD0E94AF02EAE5F2E08FEFED
:100F2000819322E0E836F207D9F75AE0452E512C9A
:100F3000612C712C88248394912C40E0242E41E074
:100F4000342E8EE392E0EAE5F2E0810161E0D8011F
:100F50004D915D918D01DC012D913D91CD014217A7
:100F6000530711F0608301C010823196B1E00C315B
:100F70001B0769F78CE1E0E0F1E0AEE3B2E001903D
:100F80000D928A95E1F78CE294E00E94E500181634
:100F900019067CF080916802909169020196893E61
:100FA000E3E09E070CF07FC1909369028093680292
:100FB0007EC16AE270E082E593E00E943506FC01A2
:100FC000FF27EE5AFC4F10823AE5A32E32E0B32EF3
:100FD00000E010E0D5018D915D01813009F060C025
:100FE000F801E45EFE4F608171818CE294E00E9422
:100FF0005B036BE671E08CE294E00E945B03F80116
:10100000E050FF4F208131816901330FEE08FF0866
:10101000F7FE26C0E0912C04F0912D040190F081A0
:10102000E02D6DE28CE294E0099522273327A90197
:101030002C193D094E095F0919A2FE01B1967F01E5
:10104000CA01B901A30192010E94070E605DD70198
:101050006E937D01211531054105510589F715C0B4
:10106000A701960119A2FE01B1967F01CA01B9013B
:10107000A30192010E94070E605DD7016E937D016E
:10108000211531054105510589F7B7018CE294E03E
:101090000E945B036CE571E08CE294E00E945B03CC
:1010A0000E5F1F4F0C31110509F094CF68E671E017
:1010B0008CE294E00E945B036CE571E082E593E0D2
:1010C0000E94250C8C01892B09F464CF6AE370E03F
:1010D000C8010E943F0E009709F4E0C0FC01119284
:1010E000CF010E94070C7C016DE671E0C8010E94EF
:1010F0004A0E892B21F4F0923903E09238036FE60F
:1011000071E0C8010E944A0E892B21F4F0923B0342
:10111000E0923A0361E771E0C8010E944A0E892B10
:1011200021F4F0923D03E0923C0363E771E0C801D3
:101130000E944A0E892B21F4F0924D03E0924C0359
:1011400065E771E0C8010E944A0E892B21F4F092F4
:101150004F03E0924E0368E771E0C8010E944A0E17
:10116000892B21F4F0925103E09250036BE771E078
:10117000C8010E944A0E892B21F4F0924503E092A7
:10118000440365E871E0C8010E944A0E892B21F4EE
:10119000F0924703E09246036DE771E0C8010E94B8
:1011A0004A0E892B09F07AC000E010E082E7E82EB1
:1011B00080E0F82EF7016491611107C068E671E0E4
:1011C0008CE294E00E945B0310C0E0912C04F0914B
:1011D0002D040190F081E02D8CE294E00995FFEF61
:1011E000EF1AFF0A892B31F7E9CF6AE270E08DE749
:1011F00093E00E943506FC01FF27EE5AFC4F13A630
:10120000823098F36DE773E08CE294E00E945B0318
:1012100068E671E08CE294E00E945B0363E070E0BA
:10122000CE0101960E943506E1E0F0E0EC0FFD1FD3
:10123000E80FF11D10828CE294E00E94630163E8E4
:1012400071E0CE0101960E944A0E892B49F4C80133
:101250000E94C4050F5F1F4FEE24E394F12C02C0DF
:10126000E12CF12C67E871E0CE0101960E944A0E54
:10127000892B19F4EE24E394F12C6BE871E0CE0194
:1012800001960E944A0E892B31F4C8010E94C405C0
:101290000093760203C0EF2809F288CF6CE571E075
:1012A00080E090E00DCF1092690210926802809168
:1012B00068029091690290930101809300018091EE
:1012C0003803909139038130910559F4209102013E
:1012D00030910301232B89F4909303018093020141
:1012E0000CC0892B51F48091020190910301019768
:1012F00021F4109203011092020180913A0390911F
:101300003B038130910559F420910401309105018E
:10131000232B99F490930501809304010CC0892B31
:1013200061F48091040190910501019731F41092CC
:101330000501109204011092770280915003909160
:10134000510320911A0130911B0182309105A1F4C3
:1013500021303105F1F180914C0390914D03909330
:1013600017018093160180914E0390914F03909343
:1013700019018093180129C08130910509F5232BAB
:1013800041F590931B0180931A01109277020E94FD
:10139000C8036093720270937302809374029093F7
:1013A00075020E94C80360936E0270936F0280936F
:1013B000700290937102109219011092180109C0E5
:1013C000892B39F42130310521F410921B01109240
:1013D0001A0180911A0190911B01019709F06AC0CE
:1013E0000E94C80320917202309173027B01E21ABD
:1013F000F30A0E94C80320916E0230916F028B01A4
:10140000021B130B22E0E216F104A0F06091180118
:1014100070911901E60EF71EF0921901E092180181
:101420000E94C803609372027093730280937402E7
:10143000909375028091180190911901883E934014
:1014400024F01092190110921801093EB3E01B0715
:1014500088F1C80168EE73E00E94F30D80E090E02F
:101460000E948E0C4AE652E00E94BF0D6091160168
:1014700070911701072E000C880B990B0E94900C9D
:1014800020916A0230916B0240916C0250916D0282
:101490000E941D0D0E94890D709317016093160123
:1014A0000E94C80360936E0270936F028093700273
:1014B000909371028091120190911301019731F084
:1014C0008091140190911501019781F4109205010A
:1014D0001092040110921B0110921A0110923B030A
:1014E00010923A031092510310925003809104011C
:1014F00090910501019709F05EC080911A019091C9
:101500001B01019709F057C080917702482F50E0E6
:101510009A012F5F3F4F9CE0929FF001939FF00D47
:101520001124E855FC4F609116017091170120813C
:1015300031816217730794F060911801709119015D
:1015400022813381621773074CF02091760230E0DC
:10155000421753071CF48F5F80937702E091770264
:101560008E2F90E02CE0E29FF0011124E855FC4F13
:101570002481358140910801509109014217530798
:1015800021F030930901209308012CE0289FF001FD
:10159000299FF00D1124E855FC4F868197812091F9
:1015A0000C0130910D012817390799F090930D0126
:1015B00080930C010EC010923B0310923A031092DC
:1015C00009011092080110920D0110920C01109265
:1015D000770280910201909103010197C1F410926A
:1015E00009011092080110920D0110920C01109245
:1015F0001B0110921A011092050110920401109221
:1016000051031092500310923B0310923A0310E0E2
:101610004AE0BE01665D7F4FD1018D919D911D0114
:101620000E94510CBE01665D7F4FCE0101961111E3
:1016300003C00E94530E02C00E94340E6CE571E09C
:10164000CE0101960E94340E1F5F1E3009F760E044
:1016500070E0CE0101960E94340E81E080939F02DB
:1016600082E08093C1021092A0021092C202BE01D9
:101670006F5F7F4F89EC94E00E945B039091C20200
:101680008091C102913208F046C020919E02211142
:10169000FCCF22E020939E0221E020939D022FEFB9
:1016A00020939C0210929B0290939A02A1EAB2E0CE
:1016B0004AE752E0FA012E2F241B291718F42D9126
:1016C0002193F9CF1092790290917902880F892B9A
:1016D0008093790280917802813061F410927802CF
:1016E000809179028093BB008091BC0083FDF8CF8C
:1016F00085EC01C085EE8093BC0080919E02823013
:10170000E1F380919C028F3F31F080919C02803206
:1017100011F080919C021092A0021092C2021092CD
:101720009F020E94ED02811108C00E94ED0281110A
:1017300004C0909215018092140180913503882392
:1017400041F16CE571E089EE92E00E94250C05EC18
:1017500012E00097C1F00E94070CBC01990F880BA2
:10176000990B0E94900CF80161937193819391936E
:101770008F016CE571E080E090E00E94250CF2E0C2
:10178000093E1F0731F71092C4021092C302109253
:1017900035030E94AF020E948501CFCBECE2F4E05A
:1017A0001382128288EE93E0A0E0B0E084839583F8
:1017B000A683B7832CE331E03183208325EC30E02E
:1017C0003587248724EC30E03787268720EC30E00B
:1017D000318B208B21EC30E0338B228B22EC30E0FC
:1017E000358B248B26EC30E0378B268B118E128EB6
:1017F000138E148EE9ECF4E01382128284839583B5
:10180000A683B7838EE491E0918380830895FC01E1
:1018100088279927E89421912032E9F3293010F0A4
:101820002E30C8F32B3241F02D3239F4689404C0C5
:101830000E945C0C820F911D219120532A30C0F32D
:101840001EF4909581959F4F089545ED54E00E94B8
:101850002A0C0895FA01A191B081009719F410970C
:10186000E1F0CD01DC01CD010D90002011F4C001AB
:1018700013C0FB012191222319F02015D9F7F3CFD2
:10188000FB012191201519F41E92119606C0222306
:10189000C1F70D900020A1F7D001FA01A193B08308
:1018A0000895BB274A3031F4992322F4BDE2909584
:1018B00081959F4F0C94650C7AE0979F902D879FA0
:1018C000802D910D11240895BB27FB015527AA27D0
:1018D000880F991FAA1FA41710F0A41B83955051BD
:1018E000B9F7A05DAA3308F0A95DA193009779F735
:1018F000B111B1931192CB010C947E0CDC01FC016F
:10190000672F71917723E1F7329704C07C916D9333
:1019100070836291AE17BF07C8F30895E89409C0B9
:1019200097FB3EF490958095709561957F4F8F4F12
:101930009F4F9923A9F0F92F96E9BB279395F69528
:10194000879577956795B795F111F8CFFAF4BB0FA6
:1019500011F460FF1BC06F5F7F4F8F4F9F4F16C00A
:10196000882311F096E911C0772321F09EE8872F94
:10197000762F05C0662371F096E8862F70E060E050
:101980002AF09A95660F771F881FDAF7880F9695C9
:10199000879597F9089597F99F6780E870E060E070
:1019A00008959FEF80EC089500240A9416161706F8
:1019B00018060906089500240A9412161306140640
:1019C00005060895092E0394000C11F4882352F0A3
:1019D000BB0F40F4BF2B11F460FF04C06F5F7F4F5B
:1019E0008F4F9F4F089557FD9058440F551F59F042
:1019F0005F3F71F04795880F97FB991F61F09F3FFC
:101A000079F087950895121613061406551FF2CF24
:101A10004695F1DF08C0161617061806991FF1CF74
:101A200086957105610508940895E894BB2766279B
:101A30007727CB0197F908955058BB27AA270E9412
:101A4000340D0C94E20C0E94D40C38F00E94DB0C94
:101A500020F039F49F3F19F426F40C94D10C0EF4C5
:101A6000E095E7FB0C94CB0CE92F0E94F30C58F3A4
:101A7000BA17620773078407950720F079F4A6F573
:101A80000C94150D0EF4E0950B2EBA2FA02D0B0122
:101A9000B90190010C01CA01A0011124FF27591BB3
:101AA00099F0593F50F4503E68F11A16F040A22FB9
:101AB000232F342F4427585FF3CF4695379527952A
:101AC000A795F0405395C9F77EF41F16BA0B620B29
:101AD000730B840BBAF09150A1F0FF0FBB1F661F70
:101AE000771F881FC2F70EC0BA0F621F731F841FB3
:101AF00048F4879577956795B795F7959E3F08F0D9
:101B0000B0CF9395880F08F09927EE0F979587959A
:101B100008950E94900D6894B1110C94160D0895CB
:101B20000E94FB0C88F09F5798F0B92F9927B75166
:101B3000B0F0E1F0660F771F881F991F1AF0BA9571
:101B4000C9F714C0B13091F00E94150DB1E00895AD
:101B50000C94150D672F782F8827B85F39F0B93F9F
:101B6000CCF3869577956795B395D9F73EF4909524
:101B70008095709561957F4F8F4F9F4F0895FA0123
:101B8000DC01AA0FBB1F9B01AC01BF5728F4222721
:101B900033274427507820C0B75190F4AB2F00244E
:101BA000469537952795011CA395D2F3002071F037
:101BB000220F331F441FB395DAF30ED00C941C0D83
:101BC00061307105A0E88A07B94630F49B01AC0189
:101BD0006627772788279078309621F020833183F5
:101BE000428353830895AA1BBB1B51E107C0AA1F60
:101BF000BB1FA617B70710F0A61BB70B881F991FAE
:101C00005A95A9F780959095BC01CD010895A1E260
:101C10001A2EAA1BBB1BFD010DC0AA1FBB1FEE1F66
:101C2000FF1FA217B307E407F50720F0A21BB30BB1
:101C3000E40BF50B661F771F881F991F1A9469F72D
:101C400060957095809590959B01AC01BD01CF0189
:101C50000895EE0FFF1F0590F491E02D099481E0A7
:101C600090E0F8940C945A0EFB01DC010D900020DA
:101C7000E9F7119701900D920020E1F70895FC011A
:101C80008191861721F08823D9F7992708953197F4
:101C9000CF010895FB01DC018D91019080190110A5
:101CA000D9F3990B0895FB01DC0101900D920020FE
:081CB000E1F70895F894FFCF5D
:101CB800000000000000000000000000000000001C
:101CC800000000000000E2FF000000008F016D012D
:101CD8006F0171019101930196017B0185019901C1
:101CE8009C01730175017801000000001C01890046
:101CF800B4006301E500C300D700000000007C02C7
:101D08004C02AC0220024402300221022C002D2D8C
:101D18003E4D6963726F31000D0A003A004500417B
:101D28000046004300435F00436D0042004E657863
:101D3800757300524752004E45470044554E0048BF
:101D4800004900465F00415F00463100463200000E
:00000001FF
