:100000000C9435000C945D000C945D000C945D0024
:100010000C945D000C945D000C945D000C945D00EC
:100020000C945D000C945D000C945D000C945D00DC
:100030000C945D000C945D000C945D000C945D00CC
:100040000C9435010C945D000C9468030C949A0395
:100050000C945D000C945D000C945D000C945D00AC
:100060000C945D000C945D00CA0311241FBECFEFF9
:10007000D8E0DEBFCDBF11E0A0E0B1E0E6ECF1E1F9
:1000800002C005900D92AC35B107D9F722E0ACE57E
:10009000B1E001C01D92AA30B207E1F710E0CAE654
:1000A000D0E004C02297FE010E945906C836D1074D
:1000B000C9F70E9425060C94E1080C94000026E084
:1000C00040E950ED63E070E089E691E00E940603AC
:1000D0004AE050E060E070E089E691E00E94AF0401
:1000E00064E170E080E090E00E94AE0166E071E0C3
:1000F00089E691E00E946F0464E670E080E090E0A1
:100100000C94AE010F931F93CF93DF93CDB7DEB75F
:100110002C970FB6F894DEBF0FBECDBF8C01409177
:100120005C0150915D0160915E0170915F014F5FD4
:100130005F4F6F4F7F4F493E83E058076105710560
:100140004CF440935C0150935D0160935E017093A9
:100150005F0108C010925C0110925D0110925E0177
:1001600010925F0140915C0150915D0160915E01D0
:1001700070915F012AE0CE0107960E948B0560E135
:1001800071E0CE0101960E943D05BE01695F7F4F7F
:10019000CE0101960E94F70563E171E00E940A0614
:1001A000BC01C8010E946A05CE0101960E94CF04DD
:1001B000CE0107960E94CF04C8012C960FB6F89482
:1001C000DEBF0FBECDBFDF91CF911F910F9108957C
:1001D0000E945F004AE050E060E070E089E691E054
:1001E0000C94AF04CF93DF93CDB7DEB762970FB611
:1001F000F894DEBF0FBECDBF65E171E0CE010D9674
:100200000E943D0589E691E00E942302892B01F1BD
:1002100069E671E0CE0107960E94B504CE01019611
:100220000E948200BE016F5F7F4F89E691E00E94CD
:100230004B04CE0101960E94CF04BE01635F7F4F45
:1002400089E691E00E945D04CE0107960E94CF04EA
:10025000CE010D960E94CF0462960FB6F894DEBFD1
:100260000FBECDBFDF91CF9108951F920F920FB6B1
:100270000F9211242F933F938F939F93AF93BF932C
:100280008091610190916201A0916301B09164013C
:100290003091600123E0230F2D3720F40196A11D3A
:1002A000B11D05C026E8230F0296A11DB11D2093A4
:1002B00060018093610190936201A0936301B09308
:1002C00064018091650190916601A0916701B091F0
:1002D00068010196A11DB11D80936501909366018F
:1002E000A0936701B0936801BF91AF919F918F91E7
:1002F0003F912F910F900FBE0F901F9018952FB721
:10030000F894609161017091620180916301909114
:1003100064012FBF08953FB7F894809165019091D3
:100320006601A0916701B091680126B5A89B05C040
:100330002F3F19F00196A11DB11D3FBF6627782FF1
:10034000892F9A2F620F711D811D911D42E0660F4A
:10035000771F881F991F4A95D1F708958F929F9212
:10036000AF92BF92CF92DF92EF92FF926B017C012E
:100370000E948B014B015C01C114D104E104F10422
:10038000F1F00E9434060E948B01681979098A09EC
:100390009B09683E73408105910570F321E0C21A04
:1003A000D108E108F10888EE880E83E0981EA11CB0
:1003B000B11CC114D104E104F10429F7DDCFFF9091
:1003C000EF90DF90CF90BF90AF909F908F90089567
:1003D000789484B5826084BD84B5816084BD85B520
:1003E000826085BD85B5816085BDEEE6F0E08081E7
:1003F00081608083E1E8F0E0108280818260808308
:10040000808181608083E0E8F0E08081816080838A
:10041000E1EBF0E0808184608083E0EBF0E08081BC
:1004200081608083EAE7F0E080818460808380815E
:100430008260808380818160808380818068808306
:100440001092C1000895FC01818D228D90E0805CA6
:100450009F4F821B91098F7399270895FC01918DFD
:10046000828D981731F0828DE80FF11D858D90E017
:1004700008958FEF9FEF0895FC01918D828D98175D
:1004800061F0828DDF01A80FB11D5D968C91928D78
:100490009F5F9F73928F90E008958FEF9FEF089575
:1004A00080EC93E0892B49F080E090E0892B29F0E3
:1004B0000E94C00381110C9400000895FC01848DFA
:1004C000DF01A80FB11DA35ABF4F2C91848D90E07E
:1004D00001968F739927848FA689B7892C93A08959
:1004E000B1898C9180648C93938D848D981306C010
:1004F0000288F389E02D80818F7D80830895CF93DA
:10050000DF93EC01888D8823C9F0EA89FB8980811B
:1005100085FD05C0A889B9898C9186FD0FC00FB6ED
:1005200007FCF5CF808185FFF2CFA889B9898C912E
:1005300085FFEDCFCE010E945E02E7CFDF91CF9124
:100540000895CF92DF92FF920F931F93CF93DF9383
:100550001F92CDB7DEB76C0181E0D60158968C931F
:1005600058975B969C915B975C968C915C979813DF
:1005700007C05096ED91FC915197808185FD2EC06A
:10058000F601038D10E00F5F1F4F0F731127F02E40
:10059000F601848DF81211C00FB607FCF9CFD60111
:1005A0005096ED91FC915197808185FFF1CFC60166
:1005B00069830E945E026981EBCF838DE80FF11D94
:1005C000E35AFF4F6083D6015B960C935B9752967C
:1005D000ED91FC915397808180620CC0D6015696B4
:1005E000ED91FC91579760835096ED91FC91519756
:1005F00080818064808381E090E00F90DF91CF91D3
:100600001F910F91FF90DF90CF900895BF92CF92EE
:10061000DF92EF92FF92CF93DF93EC016A017B01AF
:10062000B22EE889F98982E08083411581EE58076E
:1006300061057105A1F060E079E08DE390E0A7012C
:1006400096010E94350621503109410951095695FC
:10065000479537952795211580E1380798F0E88967
:10066000F989108260E874E88EE190E0A7019601B4
:100670000E94350621503109410951095695479587
:1006800037952795EC85FD853083EE85FF852083A2
:10069000188EEC89FD89B082EA89FB8980818061AE
:1006A0008083EA89FB89808188608083EA89FB896D
:1006B000808180688083EA89FB8980818F7D808347
:1006C000DF91CF91FF90EF90DF90CF90BF90089592
:1006D0001F920F920FB60F9211242F938F939F9317
:1006E000EF93FF93E0917901F0917A018081E0919D
:1006F0007F01F091800182FD12C090818091820182
:100700008F5F8F7320918301821751F0E0918201F6
:10071000F0E0E759FE4F958F8093820101C0808100
:10072000FF91EF919F918F912F910F900FBE0F909E
:100730001F9018951F920F920FB60F9211242F93AE
:100740003F934F935F936F937F938F939F93AF9359
:10075000BF93EF93FF9389E691E00E945E02FF91C1
:10076000EF91BF91AF919F918F917F916F915F9129
:100770004F913F912F910F900FBE0F901F901895A2
:1007800089E691E00E94230221E0892B09F420E010
:10079000822F089510926C0110926B0188EE93E005
:1007A000A0E0B0E080936D0190936E01A0936F0183
:1007B000B09370018EE391E090936A018093690198
:1007C00085EC90E0909376018093750184EC90E045
:1007D000909378018093770180EC90E090937A0178
:1007E0008093790181EC90E090937C0180937B0170
:1007F00082EC90E090937E0180937D0186EC90E006
:100800009093800180937F01109282011092830166
:1008100010928401109285010895CF92DF92EF9299
:10082000FF920F931F93CF93DF937C016A01EB013B
:1008300000E010E00C151D0571F06991D701ED91F4
:10084000FC910190F081E02DC7010995892B19F0E9
:100850000F5F1F4FEFCFC801DF91CF911F910F9115
:10086000FF90EF90DF90CF9008956115710581F0B2
:10087000DB010D900020E9F7AD0141505109461B05
:10088000570BDC01ED91FC910280F381E02D09947E
:1008900080E090E00895DC01ED91FC91DB0114967D
:1008A0004D915C9115976D917C910280F381E02DC3
:1008B00009946AE471E00C9435040F931F93CF936D
:1008C000DF93EC010E944B048C01CE010E9459047D
:1008D000800F911FDF91CF911F910F9108950F937A
:1008E0001F93CF93DF93EC010E9435048C01CE015E
:1008F0000E945904800F911FDF91CF911F910F919A
:1009000008950F931F93CF93DF93EC010E947F0113
:10091000688779878A879B87E881F9810680F781D4
:10092000E02DCE01099597FF15C00E947F01088533
:1009300019852A853B85601B710B820B930B0C81FB
:100940001D812E813F81601771078207930720F375
:100950008FEF9FEFDF91CF911F910F910895FC01D1
:10096000448355836683778308950F931F93CF93B2
:10097000DF93EC018B016CE471E00E943D05C8013E
:100980000E94810497FD05C0682FCE010E94E405F6
:10099000F6CFCE01DF91CF911F910F910895FC0109
:1009A000808191810C94F506CF93DF93EC018881CF
:1009B0009981009711F00E94F506198218821D8214
:1009C0001C821B821A82DF91CF9108950F931F938F
:1009D000CF93DF93EC018B016F5F7F4F888199810B
:1009E0000E948407009731F0998388831B830A83D0
:1009F00081E001C080E0DF91CF911F910F910895B8
:100A0000CF93DF93EC0188819981892B29F08A812A
:100A10009B818617970760F4CE010E94E604882325
:100A200041F08C819D81892B19F4E881F981108234
:100A300081E0DF91CF910895EF92FF920F931F9382
:100A4000CF93DF93EC017B018A01BA010E9400057C
:100A5000811104C0CE010E94D40407C01D830C8301
:100A6000B701888199810E945708CE01DF91CF910B
:100A70001F910F91FF90EF900895FC011182108259
:100A800013821282158214826115710559F0FB01DF
:100A900001900020E9F7AF0141505109461B570B67
:100AA0000C941C050895CF93DF93EC01FB0186178E
:100AB000970761F0608171816115710529F04481AA
:100AC00055810E941C0502C00E94D404CE01DF9112
:100AD000CF910895FC011182108213821282158237
:100AE00014820C945305CF93DF93EC0161157105CB
:100AF00061F0FB0101900020E9F7AF01415051097D
:100B0000461B570B0E941C0502C00E94D404CE0154
:100B1000DF91CF9108950F931F93CF93DF93CDB7BC
:100B2000DEB7A2970FB6F894DEBF0FBECDBF8C0123
:100B3000CB01BA01F8011182108213821282158250
:100B4000148230E0AE014F5F5F4F0E945E08BE012D
:100B50006F5F7F4FC8010E947305A2960FB6F8948D
:100B6000DEBF0FBECDBFDF91CF911F910F910895D2
:100B7000EF92FF920F931F93CF93DF93EC017B01D2
:100B80000C811D816115710511F480E016C04115BD
:100B9000510591F0040F151FB8010E94000588232C
:100BA000A1F3288139818C819D81B701820F931F28
:100BB0000E9457081D830C8381E0DF91CF911F9124
:100BC0000F91FF90EF900895CF93DF9300D0CDB7B2
:100BD000DEB769831A8241E050E0BE016F5F7F4F4C
:100BE0000E94B8050F900F90DF91CF910895CF9399
:100BF000DF93EC01FB0144815581608171810E948A
:100C0000B805811103C0CE010E94D404CE01DF914A
:100C1000CF910895CF93DF93EC016115710569F0D1
:100C2000FB0101900020E9F7AF0141505109461B3B
:100C3000570B0E94B805811103C0CE010E94D40455
:100C4000CE01DF91CF91089508950E94E8010E949E
:100C500024060E94E800C0E5D2E00E94F20020973E
:100C6000E1F30E945002F9CF0895A1E21A2EAA1BC7
:100C7000BB1BFD010DC0AA1FBB1FEE1FFF1FA2174C
:100C8000B307E407F50720F0A21BB30BE40BF50B49
:100C9000661F771F881F991F1A9469F760957095D2
:100CA000809590959B01AC01BD01CF010895EE0F99
:100CB000FF1F0590F491E02D0994CF93DF938230CC
:100CC000910510F482E090E0E0910802F0910902B1
:100CD00020E030E0A0E0B0E0309739F14081518170
:100CE00048175907B8F04817590771F48281938162
:100CF000109729F013969C938E9312972CC0909383
:100D000009028093080227C02115310531F04217EE
:100D1000530718F0A901DB0101C0EF019A01BD01E1
:100D2000DF010280F381E02DD7CF21153105F9F0E5
:100D3000281B390B2430310580F48A819B81611591
:100D4000710521F0FB019383828304C09093090213
:100D500080930802FE01329644C0FE01E20FF31FA9
:100D60008193919322503109398328833AC020918D
:100D7000060230910702232B41F4209102013091A9
:100D80000301309307022093060220910001309165
:100D900001012115310541F42DB73EB74091040101
:100DA00050910501241B350BE0910602F0910702DA
:100DB000E217F307A0F42E1B3F0B2817390778F032
:100DC000AC014E5F5F4F2417350748F04E0F5F1F91
:100DD00050930702409306028193919302C0E0E092
:100DE000F0E0CF01DF91CF910895CF93DF9300978B
:100DF00009F487C0FC01329713821282C091080265
:100E0000D0910902209781F420813181280F391F68
:100E100080910602909107028217930779F5F0936B
:100E20000702E09306026DC0DE0120E030E0AE175D
:100E3000BF0750F412964D915C9113979D01411597
:100E4000510509F1DA01F3CFB383A28340815181C7
:100E5000840F951F8A179B0771F48D919C911197B0
:100E6000840F951F02969183808312968D919C9199
:100E70001397938382832115310529F4F093090296
:100E8000E09308023EC0D9011396FC93EE931297AB
:100E90004D915D91A40FB51FEA17FB0779F480818E
:100EA0009181840F951F0296D90111969C938E9380
:100EB0008281938113969C938E931297E0E0F0E0E9
:100EC0008A819B81009719F0FE01EC01F9CFCE01D8
:100ED000029628813981820F931F2091060230915A
:100EE00007022817390769F4309729F4109209028C
:100EF0001092080202C013821282D0930702C0939C
:100F00000602DF91CF910895A0E0B0E0EAE8F7E0B3
:100F10000C94AE08EC01CB01209719F40E945D06F9
:100F2000B8C0FE01E60FF71F9E0122503109E217FB
:100F3000F30708F4ACC0D9010D911C911197061765
:100F40001707B8F00530110508F49FC0A8014450F8
:100F500051094617570708F498C002501109061B9B
:100F6000170B019311936D937C93CF010E94F506AB
:100F70008CC05B01A01AB10A4E01800E911EA09197
:100F80000802B0910902612C712C60E070E01097AA
:100F900009F449C0A815B905C9F5ED90FC90119761
:100FA000670142E0C40ED11CCA14DB0478F147018A
:100FB0008A189B08640142E0C40ED11C1296BC90B2
:100FC00012971396AC91B5E0CB16D10440F0B282E3
:100FD000A38391828082D9018D939C9309C00E5F77
:100FE0001F4F0E0D1F1DF90111830083EB2DFA2FEA
:100FF0006115710531F0DB011396FC93EE931297A6
:1010000044C0F0930902E09308023FC06D917C91C7
:1010100011976616770608F43B01BD0112960D90F4
:10102000BC91A02DB4CF60910602709107026815A3
:101030007905E9F468167906D0F4409100015091E1
:1010400001014115510541F44DB75EB760910401AE
:1010500070910501461B570BE417F507C0F4F09398
:101060000702E0930602F901918380830EC00E947B
:101070005D067C01009759F0A801BE010E944E0850
:10108000CE010E94F506C70104C0CE0102C080E077
:1010900090E0CDB7DEB7EEE00C94CA08FB01DC01AE
:1010A00002C001900D9241505040D8F70895FB01C5
:1010B000DC0101900D920020E1F708952532310501
:1010C00020F4223010F00C946908FA011082CA0151
:1010D0000895BB272A3051F4992342F4BDE290953C
:1010E0008095709561957F4F8F4F9F4F0C94790835
:1010F000BB27FA01A62F6217710581059105330BF5
:1011000030FB66F0AA27660F771F881F991FAA1F5A
:10111000A21710F0A21B63953850A9F7A05DAA335F
:1011200008F0A95DA19336F7B111B1931082CA01FD
:101130000C949A08DC01FC01672F71917723E1F789
:10114000329704C07C916D9370836291AE17BF0794
:10115000C8F308952F923F924F925F926F927F92C1
:101160008F929F92AF92BF92CF92DF92EF92FF92B7
:101170000F931F93CF93DF93CDB7DEB7CA1BDB0B63
:101180000FB6F894DEBF0FBECDBF09942A88398808
:1011900048885F846E847D848C849B84AA84B9840F
:1011A000C884DF80EE80FD800C811B81AA81B9811B
:1011B000CE0FD11D0FB6F894DEBF0FBECDBFED012F
:0611C0000895F894FFCF32
:1011C60000000A0280002D2D3E4D6963726F3200C9
:1011D600483A002C00436161616E20796F75206684
:1011E6006565656C20746865206C6F6F6F6F7665DA
:1011F60020746F6E696768743F0000000000A102EA
:101206000D0423023C022E027F020D0A006E616E5F
:0C12160000696E66006F7666002E000016
:107E0000112484B714BE81FFF0D085E080938100F7
:107E100082E08093C00088E18093C10086E0809377
:107E2000C20080E18093C4008EE0C9D0259A86E02C
:107E300020E33CEF91E0309385002093840096BBD3
:107E4000B09BFECF1D9AA8958150A9F7CC24DD24C4
:107E500088248394B5E0AB2EA1E19A2EF3E0BF2EE7
:107E6000A2D0813461F49FD0082FAFD0023811F036
:107E7000013811F484E001C083E08DD089C08234E0
:107E800011F484E103C0853419F485E0A6D080C0E4
:107E9000853579F488D0E82EFF2485D0082F10E0AE
:107EA000102F00270E291F29000F111F8ED06801E7
:107EB0006FC0863521F484E090D080E0DECF843638
:107EC00009F040C070D06FD0082F6DD080E0C81688
:107ED00080E7D80618F4F601B7BEE895C0E0D1E017
:107EE00062D089930C17E1F7F0E0CF16F0E7DF06D8
:107EF00018F0F601B7BEE89568D007B600FCFDCFD4
:107F0000A601A0E0B1E02C9130E011968C91119780
:107F100090E0982F8827822B932B1296FA010C0160
:107F200087BEE89511244E5F5F4FF1E0A038BF0790
:107F300051F7F601A7BEE89507B600FCFDCF97BE46
:107F4000E89526C08437B1F42ED02DD0F82E2BD052
:107F50003CD0F601EF2C8F010F5F1F4F84911BD097
:107F6000EA94F801C1F70894C11CD11CFA94CF0C13
:107F7000D11C0EC0853739F428D08EE10CD085E9AC
:107F80000AD08FE07ACF813511F488E018D01DD067
:107F900080E101D065CF982F8091C00085FFFCCF94
:107FA0009093C60008958091C00087FFFCCF809118
:107FB000C00084FD01C0A8958091C6000895E0E648
:107FC000F0E098E1908380830895EDDF803219F02E
:107FD00088E0F5DFFFCF84E1DECF1F93182FE3DFCA
:107FE0001150E9F7F2DF1F91089580E0E8DFEE27F6
:047FF000FF270994CA
:027FFE00040479
:0400000300007E007B
:00000001FF
