:100000000C947C000C94A4000C94A4000C94A40008
:100010000C94A4000C94A4000C94A4000C94A400D0
:100020000C94A4000C94A4000C94A4000C94A400C0
:100030000C94A4000C94A4000C94A4000C94A400B0
:100040000C940B050C94A4000C94BF020C94990220
:100050000C94A4000C94A4000C94A4000C94A40090
:100060000C948D060C94A4004E414E494E495459AF
:10007000494E46CDCCCC3D0AD7233C17B7D1387773
:10008000CC2B329595E6241FB14F0A000020410089
:1000900000C84200401C4620BCBE4CCA1B0E5AAED3
:1000A000C59D7400000000240027002A00010204FE
:1000B00008102040800102040810200102040810EA
:1000C00020040404040404040402020202020203E1
:1000D000030303030300000000250028002B000099
:1000E00000000800020100000304070000000000F7
:1000F00000000000F0089F0C11241FBECFEFD8E0D5
:10010000DEBFCDBF23E0A4ECB1E001C01D92A23D53
:10011000B207E1F711E0A0E0B1E0EAEFF5E202C0DA
:1001200005900D92A43CB107D9F710E0CBE7D0E0E1
:1001300004C02197FE010E949711CA37D107C9F761
:100140000E9436090C94F0120C940000CF92DF92BA
:10015000EF92FF920F931F93CF93DF936C017A017D
:100160008B01C0E0D0E0CE15DF0589F0D8016D919C
:100170008D01D601ED91FC910190F081E02DC60139
:100180000995892B11F47E0102C02196ECCFC7019D
:10019000DF91CF911F910F91FF90EF90DF90CF9063
:1001A0000895FC01538D448D252F30E0842F90E07D
:1001B000821B930B541710F0CF9608950197089562
:1001C000FC01918D828D981761F0828DDF01A80F5F
:1001D000B11D5D968C91928D9F5F9F73928F90E081
:1001E00008958FEF9FEF0895FC01918D828D9817F0
:1001F00031F0828DE80FF11D858D90E008958FEF2D
:100200009FEF0895FC01918D228D892F90E0805CF5
:100210009F4F821B91098F73992708958BE892E075
:100220000E94020121E0892B09F420E0822F089529
:10023000009769F0FC0101900020E9F73197AF01C8
:10024000481B590BBC018BE892E00C94A60080E09F
:1002500090E008958F929F92AF92BF920F931F9359
:10026000CF93DF93CDB7DEB7A1970FB6F894DEBF7B
:100270000FBECDBF19A2423008F44AE08E010F5DD7
:100280001F4F842E912CA12CB12CA50194010E940A
:100290007511E62FB901CA0101501109EA3014F4B1
:1002A000E05D01C0E95CD801EC93232B242B252BC6
:1002B00061F7C8010E941801A1960FB6F894DEBF3D
:1002C0000FBECDBFDF91CF911F910F91BF90AF9027
:1002D0009F908F9008950E94CA12EF92FF920F9301
:1002E0001F93CF93DF93EC0181E0888F9B8D8C8DE2
:1002F000981305C0E889F989808185FD24C0F62E10
:100300000B8D10E00F5F1F4F0F731127E02E8C8DA8
:10031000E8120CC00FB607FCFACFE889F989808192
:1003200085FFF5CFCE010E942804F1CF8B8DFE0111
:10033000E80FF11DE35AFF4FF0820B8FEA89FB892A
:100340008081806207C0EE89FF896083E889F9892E
:1003500080818064808381E090E0DF91CF911F9164
:100360000F91FF90EF900895CF93DF93EC01888D6C
:100370008823C9F0EA89FB89808185FD05C0A889A9
:10038000B9898C9186FD0FC00FB607FCF5CF80812F
:1003900085FFF2CFA889B9898C9185FFEDCFCE0179
:1003A0000E942804E7CFDF91CF910895382F209144
:1003B000600290915F02213208F049C080913C02B6
:1003C0008111FCCF42E040933C0230933B023FEF6F
:1003D00030933A021092390220933802AFE3B2E030
:1003E00048E152E0FA013E2F341B321718F43D91D8
:1003F0003193F9CF1092170220911702990F922B87
:100400009093170290911602913061F410921602A7
:10041000909117029093BB009091BC0093FDF8CF90
:1004200095EC01C095EE9093BC0090913C02923007
:10043000E1F390913A029F3F79F080913A02803245
:1004400041F080913A02803331F084E005C081E0D0
:1004500003C082E001C083E010923E02109260026D
:1004600010923D020895CF93C62F9091860221E00D
:1004700020933D0290935F0210923E021092600220
:10048000682F81E692E00E94AE036C2F81E692E035
:100490000E94AE0381E0CF910C94D60190913C0272
:1004A0009111FCCF613208F060E291E090933C0240
:1004B00090933B022FEF20933A0210923902260FBD
:1004C000209338029093170290911702880F892B7E
:1004D0008093170280911602813061F41092160207
:1004E000809117028093BB008091BC0083FDF8CF00
:1004F00085EC01C085EE8093BC0080913C02813088
:10050000E1F380913902861710F460913902A8E175
:10051000B2E026EF31E0F9018E2F821B861718F426
:100520008D918193F9CF1092F5016093F401862F9C
:1005300008951F920F920FB60F9211242F933F939D
:100540004F935F936F937F938F939F93AF93BF93DB
:10055000EF93FF938BE892E00E942804FF91EF91C4
:10056000BF91AF919F918F917F916F915F914F91CB
:100570003F912F910F900FBE0F901F9018951F92D3
:100580000F920FB60F9211242F938F939F93EF9397
:10059000FF93E0919B02F0919C028081E091A10287
:1005A000F091A20282FD12C090818091A4028F5F1F
:1005B0008F732091A502821751F0E091A402F0E020
:1005C000E557FD4F958F8093A40201C08081FF9174
:1005D000EF919F918F912F910F900FBE0F901F90D1
:1005E000189580E090E0892B29F00E940E0181117E
:1005F0000C94000008953FB7F8948091C603909141
:10060000C703A091C803B091C90326B5A89B05C034
:100610002F3F19F00196A11DB11D3FBFBA2FA92F81
:10062000982F8827820F911DA11DB11DBC01CD01FE
:1006300042E0660F771F881F991F4A95D1F70895EA
:100640008091F40190E02091F501821B91090895B9
:1006500085ED8093BC008091BC0084FDFCCF10929E
:100660003C02089540919C03262F30E0240F311D59
:1006700021323105DCF420913C022430C9F4FC0124
:1006800080E090E0861758F430919C032191DC01C2
:10069000A658BC4FA30FB11D2C930196F3CF8091A8
:1006A0009C03680F60939C0380E0089581E00895A7
:1006B00082E008950895E091F5018091F401E81732
:1006C00030F4F0E0EA50FE4F808190E008958FEF23
:1006D0009FEF08959091F5018091F401981750F4DF
:1006E000E92FF0E0EA50FE4F208130E09F5F9093C9
:1006F000F50102C02FEF3FEFC9010895CF92DF92BD
:10070000EF92FF920F931F93CF93DF937C01262FDD
:10071000972F8A0180913D02882391F0C62FD72F11
:100720006E01C40ED51ECC15DD0571F06991D7019F
:10073000ED91FC910190F081E02DC7010995F3CF77
:10074000642F822F0E943203C801DF91CF911F9145
:100750000F91FF90EF90DF90CF900895CF93DF93AC
:100760001F92CDB7DEB7698320913D022223D1F0DD
:1007700020916002203240F021E030E0FC01338320
:10078000228380E090E015C080913E02E82FF0E0E7
:10079000E15CFD4F998190838F5F80933E0280934F
:1007A000600205C061E0CE0101960E94320381E043
:1007B00090E00F90DF91CF910895089580E090E050
:1007C000089508958EBD00000DB407FEFDCF8EB5CF
:1007D00008950F931F93CF93DF938C01EB0188E271
:1007E000FB0111928A95E9F74BE050E068EA71E06D
:1007F000CE010E94E1121B8641E050E060E070E013
:100800004C875D876E877F87F80185899689A789E0
:10081000B08D888B998BAA8BBB8B4C8B5D8B6E8B31
:100820007F8B1CA21DA21EA21FA2188E198E1A8ECB
:100830001B8E1C8E1D8E1E8E1F8E18A219A21AA230
:100840001BA2DF91CF911F910F9108950C9432124A
:10085000FC01848DDF01A80FB11DA35ABF4F2C915D
:10086000848D90E001968F739927848FA689B7892C
:100870002C93A089B1898C9180648C93938D848D05
:10088000981306C00288F389E02D80818F7D8083D4
:10089000089590E0FC01E152FF4F3491FC01E355D3
:1008A000FF4F2491FC01EF53FF4FE491EE2309F435
:1008B0003BC0332339F1333091F038F43130A9F0B3
:1008C000323001F584B58F7D12C0373091F0383069
:1008D000A1F03430B9F4809180008F7D03C0809105
:1008E00080008F77809380000DC084B58F7784BDA2
:1008F00009C08091B0008F7703C08091B0008F7DD8
:100900008093B000F0E0EE0FFF1FEB52FF4FA59178
:10091000B4918FB7F894EC91611103C020952E2308
:1009200001C02E2B2C938FBF0895CF93DF9390E0BF
:10093000FC01E355FF4F2491FC01EF53FF4F8491DD
:10094000882361F190E0880F991FFC01ED55FF4F5E
:10095000C591D491FC01EB52FF4FA591B491611167
:1009600009C09FB7F8948881209582238883EC91F1
:100970002E230BC0623061F49FB7F8943881822F28
:10098000809583238883EC912E2B2C939FBF06C0E8
:100990008FB7F894E8812E2B28838FBFDF91CF91FA
:1009A00008958F929F92AF92BF92CF92DF92EF9273
:1009B000FF926B017C010E94FB024B015C01C114A0
:1009C000D104E104F104F1F00E94FB02DC01CB014F
:1009D00088199909AA09BB09883E9340A105B10568
:1009E00070F321E0C21AD108E108F10888EE880E00
:1009F00083E0981EA11CB11CC114D104E104F104D0
:100A000019F7DDCFFF90EF90DF90CF90BF90AF90C0
:100A10009F908F9008951F920F920FB60F921124FE
:100A20002F933F938F939F93AF93BF938091C20374
:100A30009091C303A091C403B091C5033091C10349
:100A400023E0230F2D3720F40196A11DB11D05C011
:100A500026E8230F0296A11DB11D2093C1038093A8
:100A6000C2039093C303A093C403B093C5038091C2
:100A7000C6039091C703A091C803B091C903019622
:100A8000A11DB11D8093C6039093C703A093C80313
:100A9000B093C903BF91AF919F918F913F912F91D7
:100AA0000F900FBE0F901F901895CF93DF93EC011E
:100AB000898D91E090933D0280935F0210923E02F7
:100AC0001092600281E692E00E94AE0380E00E94F4
:100AD000D601898D61E070E0082E000C990B0E9410
:100AE0004E029091F4018091F501981729F081E66A
:100AF00092E00E946A0301C08FEFDF91CF910895C9
:100B00008F929F92AF92BF92CF92DF92EF92FF921D
:100B10000F931F93CF93DF93EC018B0184E2FB01D2
:100B200011928A95E9F784E290E0A0E0B0E0FB0141
:100B300080839183A283B3838D899E89AF89B88D89
:100B400084839583A683B78381E090E0A0E0B0E042
:100B500080879187A287B387108A118A128A138AA5
:100B6000898D91E090933D0280935F0210923E0246
:100B70001092600261E081E692E00E94AE0380E0A4
:100B80000E94D601898D66E070E0082E000C990B5A
:100B90000E944E0281E692E00E946A031B828C83CF
:100BA00081E692E00E946A032B813C81822B932B89
:100BB00095958795959587959C838B8381E692E0A3
:100BC0000E946A031D828E8381E692E00E946A037E
:100BD0002D813E81822B932B9595879595958795B1
:100BE0009E838D8381E692E00E946A031F8288873C
:100BF00081E692E00E946A032F813885822B932B35
:100C0000959587959595879598878F836EE0CE010A
:100C10000E9455058370823039F0813041F0811196
:100C200009C060E070E108C060E074E005C060E009
:100C300078E002C061E070E080E090E00E94880E01
:100C40006B017C016B817C81072E000C880B990B5A
:100C50000E948A0EA70196010E9468104B015C0158
:100C600069877A878B879C876D817E81072E000C30
:100C7000880B990B0E948A0EA70196010E946810AA
:100C80006D877E878F87988B6F817885072E000C04
:100C9000880B990B0E948A0EA70196010E9468108A
:100CA000698B7A8B8B8B9C8B2AE038EE4CE151E47C
:100CB000C501B4010E94E90EF801648B758B868B27
:100CC000978B2AE038EE4CE151E46D857E858F8567
:100CD00098890E94E90EF801608F718F828F938F3F
:100CE0002AE038EE4CE151E469897A898B899C8944
:100CF0000E94E90EF801648F758F868F978F81E0CF
:100D0000DF91CF911F910F91FF90EF90DF90CF90E7
:100D1000BF90AF909F908F9008951F920F920FB643
:100D20000F9211242F933F934F935F936F937F9371
:100D30008F939F93AF93BF93EF93FF938091B900ED
:100D4000887F803609F49CC068F5883209F45BC05E
:100D500090F4803109F454C038F4882309F4F6C0C3
:100D6000883009F44DC0F6C0883109F44CC0803297
:100D700009F45DC0EFC0803409F468C048F48033E2
:100D800009F455C0883309F0E5C080933A02D8C011
:100D9000803509F44FC0883509F45DC0883409F006
:100DA000D9C0D6C0883909F4C7C0A8F4883709F477
:100DB00067C038F4883609F463C0803709F460C02E
:100DC000C9C0883809F4B8C0803909F45FC08038D8
:100DD00009F0C0C05BC0803B09F486C038F4803A9B
:100DE00009F466C0883A09F47FC0B4C0803C09F4B5
:100DF000A7C0883C09F4A4C0883B09F48AC0AAC0F3
:100E00008091170210C09091390280913802981792
:100E100070F5E091390281E08E0F80933902F0E0A5
:100E2000E85EFD4F80818093BB0085EC86C0809397
:100E30003A028EC0E091390281E08E0F8093390230
:100E40008091BB00F0E0E85EFD4F80839091390215
:100E5000809138026EC0E091390281E08E0F80935C
:100E600039028091BB00F0E0E85EFD4F8083809105
:100E70003B0281116DC081E08093160284EA61C05B
:100E800083E080933C021092C003CFCF8091C003D7
:100E9000803208F051C0E091C00381E08E0F809352
:100EA000C0038091BB00F0E0E056FC4F8083BDCFD3
:100EB00085EC8093BC0010923C028091C00380328C
:100EC00030F4E091C003F0E0E056FC4F10826091F6
:100ED000C00370E0E0919E03F0919F0380EA93E0ED
:100EE00009951092C00336C084E080933C021092B2
:100EF0009D0310929C03E0919A03F0919B03099546
:100F000080919C03811105C081E080939C03109225
:100F10007A03E0919D0381E08E0F80939D03F0E0C2
:100F2000E658FC4F80818093BB0090919D03809197
:100F30009C03981708F479CF85E88093BC000AC019
:100F400085EC8093BC0010923C0204C010923A02DF
:100F50000E942803FF91EF91BF91AF919F918F91D4
:100F60007F916F915F914F913F912F910F900FBEA5
:100F70000F901F90189510923C0281E080933B02E5
:100F80001092160261E082E10E94490461E083E16F
:100F90000E944904E9EBF0E080818E7F80838081AC
:100FA0008D7F808388E48093B80085E48093BC00C3
:100FB00008950895EF92FF921F93CF93DF9300D08F
:100FC00000D01F92CDB7DEB789E2E1E5F3E0DF01A3
:100FD0001D928A95E9F784ECE82E81E0F82E10E066
:100FE000F70161917191819191917F010E94DA10D5
:100FF000DC01CB014AE0BE016F5F7F4F0E94D00C45
:10100000BE016F5F7F4F81E593E0111103C00E9425
:10101000DA1202C00E94CF126BE771E081E593E023
:101020000E94CF121F5F1C30D9F66BE671E081E59C
:1010300093E00E94CF1281E593E00F900F900F9004
:101040000F900F90DF91CF911F91FF90EF90089537
:10105000EF92FF920F931F93CF93DF93EC01CF3F5B
:101060008FEFD80709F448C0809128038823E1F165
:1010700060EB71E088E293E00E94CF12C830D105A6
:1010800019F466EB71E004C0299731F469EB71E063
:1010900088E293E00E94CF1260E08AE00E94490457
:1010A000C0E008E213E093ECE92EF12CF801019086
:1010B0000020E9F73197E852F3408C2F90E08E172B
:1010C0009F0758F4FC01E85DFC4F80810E94E20319
:1010D000C7010197F1F7CF5FE9CF8AE00E94E203F1
:1010E00061E08AE00E94490489E2E8E2F3E0DF017E
:1010F0001D928A95E9F738C0809151038823A1F1A8
:101100006CEB71E081E593E00E94CF1260E08AE031
:101110000E944904C0E001E513E083ECE82EF12CC5
:10112000F80101900020E9F73197E155F3408C2F49
:1011300090E08E179F0758F4FC01EF5AFC4F808116
:101140000E94E203C7010197F1F7CF5FE9CF8AE080
:101150000E94E20361E08AE0DF91CF911F910F913D
:10116000FF90EF900C944904DF91CF911F910F9164
:10117000FF90EF900895DF92EF92FF920F931F93ED
:10118000CF93DF937C01162FD72E60E0812F0E9432
:10119000490400E0C02FD0E0F70101900020E9F7FA
:1011A0003197EE19FF09CE17DF0758F4F701EC0F5E
:1011B000FD1F80810E94E203C85DDC4F88830F5FC2
:1011C000E9CF61E0812F0E944904812F9D2DDF919D
:1011D000CF911F910F91FF90EF90DF900C94280812
:1011E000EBE8F2E01382128288EE93E0A0E0B0E038
:1011F00084839583A683B78324E231E031832083FF
:1012000025EC30E03587248724EC30E037872687CB
:1012100020EC30E0318B208B21EC30E0338B228BC3
:1012200022EC30E0358B248B26EC30E0378B268B9C
:10123000118E128E138E148EE1E6F2E0138212826A
:1012400084839583A683B78386E391E0918380832B
:10125000EDE6F2E088E491E0918380838FEF9FEFE9
:10126000DC01858B968BA78BB08F0895CF93DF938E
:10127000CDB7DEB7C254D1090FB6F894DEBF0FBEAA
:10128000CDBF789484B5826084BD84B5816084BD0F
:1012900085B5826085BD85B5816085BD80916E0014
:1012A000816080936E001092810080918100826045
:1012B0008093810080918100816080938100809182
:1012C00080008160809380008091B1008460809371
:1012D000B1008091B00081608093B00080917A006D
:1012E000846080937A0080917A00826080937A0093
:1012F00080917A00816080937A0080917A00806882
:1013000080937A001092C100E0919B02F0919C02C0
:1013100082E08083E0919702F09198021082E09140
:101320009902F0919A0287E080831092A302E091E3
:101330009F02F091A00286E08083E0919D02F091EF
:101340009E02808180618083E0919D02F0919E02E7
:10135000808188608083E0919D02F0919E0280816F
:1013600080688083E0919D02F0919E0280818F7D54
:10137000808381E090E0A0E0B0E080938F029093C2
:101380009002A0939102B093920264E170E080E039
:1013900090E00E94D10480E691E00E9418018AE664
:1013A00091E00E94180164E670E080E090E00E9405
:1013B000D1041092F5011092F40110923E021092A5
:1013C00060020E94BB078DE1809386026DE08DE68E
:1013D00092E00E9455058A3129F560E48BE20E9473
:1013E00033026BE28DE692E00E94550586FDF9CF4F
:1013F00061E08EE00E94330262E08BE20E943302E1
:1014000061E08DE20E94330261E08EE20E943302CD
:1014100060E481E10E94330265E08AE20E943302C7
:1014200081E001C080E0809387026AE28DE692E06D
:101430000E945505182F60E08AE20E94330261E0A5
:101440008EE00E943302612F61608AE20E943302C3
:101450001092F5011092F40110923E021092600277
:101460000E94BB078AE090E0A0E0B0E080938F028A
:1014700090939002A0939102B09392028BE892E035
:101480000E940201181619062CF48BE892E00E94C3
:10149000E000F4CF61E088E00E94950461E089E01B
:1014A0000E94950461E08AE00E94950460E08CE06F
:1014B0000E94950461E088E00E94490461E089E0AF
:1014C0000E94490461E08AE00E9449041FB7F89431
:1014D00080918802811127C0EBECF0E08491E7EB6A
:1014E000F0E09491E82FF0E0EE0FFF1FED55FF4F75
:1014F000A591B491EC91E92321F461E08AE00E9486
:10150000490461E08AE00E9495048CB580618CBD3D
:101510008CB580648CBD61E08DE00E94950461E033
:101520008BE00E949504809188028F5F80938802EF
:101530001FBF8E010B5D1F4F2EE1322E30E4232E94
:101540008BE892E00E940201181619060CF0D8C030
:101550008BE892E00E94E00082E0482E81E0582E65
:1015600094EC692E91E0792E8BE892E00E94E000E5
:10157000D2018D919D912D010E9418018DE691E07F
:101580000E941801F301C190D190E190F1903F01C8
:10159000A7019601C701B6010E945B11882319F0CB
:1015A0008FE691E01AC046015701E894B7F82FEF93
:1015B0003FEF4FE75FE7C501B4010E945B11811166
:1015C0000FC02FEF3FEF4FE75FE7C501B4010E9467
:1015D000830E18162CF483E791E00E94180182C054
:1015E0002FEF3FEF4FE75FE4C701B6010E941011F4
:1015F00018161CF487E791E0F0CF2FEF3FEF4FE78D
:101600005FECC701B6010E94830E87FDF3CF20E097
:1016100030E0A901C701B6010E94830E87FF0FC009
:10162000E0918B02F0918C020190F081E02D6DE24F
:101630008BE892E00995F7FAF094F7F8F0942AE035
:1016400037ED43EA5BE3C701B6010E94FC0F4B0193
:101650005C010E94E1106B017C010E94880E9B01DD
:10166000AC01C501B4010E94FB0F4B015C014AE0D3
:10167000C701B6010E942A01E0918B02F0918C0211
:101680000190F081E02D6EE28BE892E0099520E078
:1016900030E040E251E4C501B4010E94E90E6B0163
:1016A0007C010E94E1104B01A12CB12C4AE0C50144
:1016B000B4010E942A01C501B4010E94880E9B0159
:1016C000AC01C701B6010E94FB0F20E030E040E210
:1016D00051E40E94E90E0E94E11080E090E04AE0AF
:1016E0000E942A018BE791E00E941801F4EF6F1627
:1016F000F1E07F0609F038CF8AE691E00E941801F8
:101700008091890290918A020196893E23E0920796
:101710002CF490938A028093890204C010928A026A
:10172000109289026091890270918A02072E000C42
:10173000880B990B0E948A0E6093C4017093C501B7
:101740008093C6019093C701D801E32D1D92EA95BD
:10175000E9F76EE170E082E090E00E944E02D8016D
:10176000E32D1D92EA95E9F7F12C9091F401809117
:10177000F501981759F081E692E00E946A03F8019A
:10178000EF0DF11D8083F3948A3079F76DE771E0F6
:10179000C8010E94A40CF12C0097F1F1F1100BC0CC
:1017A0000E94A00C6093D8017093D9018093DA0154
:1017B0009093DB0129C0F1E0FF120BC00E94A00C46
:1017C0006093DC017093DD018093DE019093DF0173
:1017D0001BC022E0F2120BC00E94A00C6093C80153
:1017E0007093C9018093CA019093CB010DC0A3E00F
:1017F000FA120AC00E94A00C6093CC017093CD0134
:101800008093CE019093CF016DE771E080E090E08E
:101810000E94A40CF394C0CF20927C0080917A00A7
:10182000806480937A0080917A0086FDFCCF80915D
:1018300078002091790090E0922BB5E0B89FB0013C
:10184000B99F700D1124072E000C880B990B0E9474
:101850008A0E2DEC3CEC4CE450E40E94E90E20E0B2
:1018600030E040E85AE30E94E90E6093D0017093A3
:10187000D1018093D2019093D30180E090E0A0EA5F
:10188000B0E48093D4019093D501A093D601B09396
:10189000D701BE016F5F7F4F8DE692E00E94800509
:1018A0006D897E898F89988D898C9A8CAB8CBC8C44
:1018B000CD8CDE8CEF8CF8A09B01AC010E94E90E70
:1018C0002B013C01A5019401C501B4010E94E90E60
:1018D0009B01AC01C301B2010E94FC0F4B015C01F2
:1018E000A7019601C701B6010E94E90E9B01AC0158
:1018F000C501B4010E94FC0F0E941B1122E538EBC8
:101900004CE151E40E9468106093F0017093F10182
:101910008093F2019093F3010E94DA0768E070E08F
:101920000E94BB080E94DA0769E070E00E94BB08D1
:101930008FEF9FEF0E9428080E94F10201CE0895C8
:10194000662777270C94F50C4AEC53E00E94A90C0B
:101950000895FA01A191B081009719F41097E1F070
:10196000CD01DC01CD010D90002011F4C00113C0A8
:10197000FB012191222319F02015D9F7F3CFFB01A8
:101980002191201519F41E92119606C02223C1F749
:101990000D900020A1F7D001FA01A193B083089522
:1019A000BB274A3031F4992322F4BDE2909581950A
:1019B0009F4F0C94DC0CBB27FB015527AA27880FEF
:1019C000991FAA1FA41710F0A41B83955051B9F7B3
:1019D000A05DAA3308F0A95DA193009779F7B11132
:1019E000B1931192CB010C94730EA0E0B0E0EBEF39
:1019F000FCE00C94B90FEC017B016115710519F045
:101A0000DB018D939C938E010F5F1F4F7880872D94
:101A100090E00E94520E892B11F0E801F4CFBDE254
:101A20007B1205C00F5F1F4F7980C1E008C0EBE259
:101A30007E1204C08E010E5F1F4F7980C0E06801E6
:101A4000F1E0CF1AD10843E050E060E770E0C60152
:101A50000E945B0E892BF1F4680122E0C20ED11CBA
:101A600045E050E06BE670E0C6010E945B0E892BFA
:101A700021F4680187E0C80ED11CE114F10419F0CB
:101A8000D701CD92DC92C111FFC060E070E080E828
:101A90009FE703C143E050E068E670E0C6010E94A2
:101AA0005B0E892B51F4E114F10409F4F2C00E5FCE
:101AB0001F4FF70111830083ECC0680160E070E004
:101AC000CB0100E010E0F601D0EDD70DDA3058F58B
:101AD0002C2F2260622E2C2F2870C2FF05C02111EE
:101AE00028C00F5F1F4F25C0222311F0015011099C
:101AF000A5E0B0E09B01AC010E94AA0F4B015C0184
:101B0000880C991CAA1CBB1CC501B4016D0F711D6A
:101B1000811D911D6839A9E97A078A07A9E19A0709
:101B200040F0C66005C0DE3F51F4C3FD44C0C8604C
:101B30006C2EBFEFCB1ADB0A7080C62DC4CF2D2FC1
:101B40002F7D2531C1F540814D3211F4C06106C0B1
:101B50004B3221F0319621E030E006C03296D601BA
:101B600011964C9122E030E0A0EDA40FAA3018F0BD
:101B7000E21BF30B20C040E050E04038BCE05B07C4
:101B80005CF49A01220F331F220F331F420F531FA1
:101B9000440F551F4A0F511D3196DF0111972C91AB
:101BA000A0EDA20FAA3048F3C4FF03C051954195A0
:101BB0005109040F151FC1FF07C0E114F10421F002
:101BC0003197D701ED93FC930E94880EC370C33008
:101BD00019F06B017C0106C06B017C01F7FAF094EF
:101BE000F7F8F09420E030E0A901C701B6010E94A7
:101BF000830E882309F445C017FF06C0119501958F
:101C00001109C7E8D0E002C0CFE9D0E05E01B8E139
:101C1000AB1AB1084601BE2DAF2D90E2E92EF12C92
:101C20000E151F0584F0FE012591359145915491C3
:101C3000B4018B2F9A2F0E94E90E4B01B82FA92FC8
:101C40000E191F09EDCF2497F594E794CA15DB050B
:101C500039F76401EB2EFA2E8E2D880F8F2D881FF9
:101C60008F3F49F020E030E0A901C701B6010E9492
:101C7000830E811106C082E290E09093CD038093A1
:101C8000CC03C701B60109C060E070E080E89FEFB7
:101C900004C060E070E080EC9FE7CDB7DEB7EEE017
:101CA0000C94D50F91110C94560F803219F0895075
:101CB0008550C8F70895FB01DC014150504088F081
:101CC0008D9181341CF08B350CF4805E659161340C
:101CD0001CF06B350CF4605E861B611171F3990B7F
:101CE0000895881BFCCFDC01FC01672F71917723DD
:101CF000E1F7329704C07C916D9370836291AE17C7
:101D0000BF07C8F308950E94C50E08F481E0089546
:101D1000E89409C097FB3EF4909580957095619585
:101D20007F4F8F4F9F4F9923A9F0F92F96E9BB273B
:101D30009395F695879577956795B795F111F8CFB7
:101D4000FAF4BB0F11F460FF1BC06F5F7F4F8F4F22
:101D50009F4F16C0882311F096E911C0772321F018
:101D60009EE8872F762F05C0662371F096E8862FB0
:101D700070E060E02AF09A95660F771F881FDAF707
:101D8000880F9695879597F90895990F0008550F34
:101D9000AA0BE0E8FEEF16161706E807F907C0F0F1
:101DA00012161306E407F50798F0621B730B840BF9
:101DB000950B39F40A2661F0232B242B252B21F4D3
:101DC00008950A2609F4A140A6958FEF811D811D73
:101DD00008950E94FC0E0C94700F0E94620F38F060
:101DE0000E94690F20F0952311F00C94590F0C9468
:101DF0005F0F11240C94A40F0E94810F70F3959F24
:101E0000C1F3950F50E0551F629FF001729FBB27F1
:101E1000F00DB11D639FAA27F00DB11DAA1F649F8D
:101E20006627B00DA11D661F829F2227B00DA11D40
:101E3000621F739FB00DA11D621F839FA00D611DC6
:101E4000221F749F3327A00D611D231F849F600DE7
:101E5000211D822F762F6A2F11249F5750409AF010
:101E6000F1F088234AF0EE0FFF1FBB1F661F771F9C
:101E7000881F91505040A9F79E3F510580F00C9467
:101E8000590F0C94A40F5F3FE4F3983ED4F386956A
:101E900077956795B795F795E7959F5FC1F7FE2B07
:101EA000880F911D9695879597F90895992788270A
:101EB000089597F99F6780E870E060E008959FEFCC
:101EC00080EC089500240A941616170618060906D1
:101ED000089500240A9412161306140605060895A0
:101EE000092E0394000C11F4882352F0BB0F40F428
:101EF000BF2B11F460FF04C06F5F7F4F8F4F9F4F68
:101F0000089557FD9058440F551F59F05F3F71F0E9
:101F10004795880F97FB991F61F09F3F79F0879550
:101F20000895121613061406551FF2CF4695F1DFD9
:101F300008C0161617061806991FF1CF8695710569
:101F4000610508940895E894BB2766277727CB019D
:101F500097F908950E94EC0FA59F900DB49F900DE6
:101F6000A49F800D911D112408952F923F924F92AE
:101F70005F926F927F928F929F92AF92BF92CF9219
:101F8000DF92EF92FF920F931F93CF93DF93CDB722
:101F9000DEB7CA1BDB0B0FB6F894DEBF0FBECDBF9A
:101FA00009942A88398848885F846E847D848C846B
:101FB0009B84AA84B984C884DF80EE80FD800C8174
:101FC0001B81AA81B981CE0FD11D0FB6F894DEBF57
:101FD0000FBECDBFED010895A29FB001B39FC00118
:101FE000A39F700D811D1124911DB29F700D811D45
:101FF0001124911D08955058BB27AA270E94131041
:102000000C94700F0E94620F38F00E94690F20F04C
:1020100039F49F3F19F426F40C945F0F0EF4E09509
:10202000E7FB0C94590FE92F0E94810F58F3BA1760
:10203000620773078407950720F079F4A6F50C94DE
:10204000A30F0EF4E0950B2EBA2FA02D0B01B901B2
:1020500090010C01CA01A0011124FF27591B99F01E
:10206000593F50F4503E68F11A16F040A22F232F2A
:10207000342F4427585FF3CF469537952795A7957A
:10208000F0405395C9F77EF41F16BA0B620B730B21
:10209000840BBAF09150A1F0FF0FBB1F661F771F92
:1020A000881FC2F70EC0BA0F621F731F841F48F447
:1020B000879577956795B795F7959E3F08F0B0CFD0
:1020C0009395880F08F09927EE0F979587950895B7
:1020D0000E947C100C94700F0E94690F58F00E94AF
:1020E000620F40F029F45F3F29F00C94590F511111
:1020F0000C94A40F0C945F0F0E94810F68F3992336
:10210000B1F3552391F3951B550BBB27AA276217F3
:102110007307840738F09F5F5F4F220F331F441F00
:10212000AA1FA9F335D00E2E3AF0E0E832D0915034
:102130005040E695001CCAF72BD0FE2F29D0660F21
:10214000771F881FBB1F261737074807AB07B0E864
:1021500009F0BB0B802DBF01FF2793585F4F3AF06A
:102160009E3F510578F00C94590F0C94A40F5F3FDB
:10217000E4F3983ED4F3869577956795B795F795F0
:102180009F5FC9F7880F911D9695879597F90895D8
:10219000E1E0660F771F881FBB1F62177307840774
:1021A000BA0720F0621B730B840BBA0BEE1F88F783
:1021B000E09508950E94E1106894B1110C94A40F69
:1021C00008950E94890F88F09F5798F0B92F99279A
:1021D000B751B0F0E1F0660F771F881F991F1AF012
:1021E000BA95C9F714C0B13091F00E94A30FB1E0C5
:1021F00008950C94A30F672F782F8827B85F39F0C4
:10220000B93FCCF3869577956795B395D9F73EF4AA
:1022100090958095709561957F4F8F4F9F4F089552
:102220000E94C50E08F48FEF089519F416F40C946B
:102230005F0F0C9460110E94890FB8F39923C9F3C2
:10224000B6F39F57550B87FF0E946E110024A0E63E
:1022500040EA900180585695979528F4805C660F67
:10226000771F881F20F026173707480730F4621BB6
:10227000730B840B202931294A2BA69517940794B8
:10228000202531254A2758F7660F771F881F20F031
:1022900026173707480730F4620B730B840B200DA9
:1022A000311D411DA09581F7B901842F9158880FE8
:1022B0009695879508950E94C50E880B990B0895F1
:1022C0009F3F31F0915020F4879577956795B795AA
:1022D000880F911D9695879597F9089591505040D4
:1022E000660F771F881FD2F70895A1E21A2EAA1B46
:1022F000BB1BFD010DC0AA1FBB1FEE1FFF1FA217B6
:10230000B307E407F50720F0A21BB30BE40BF50BB2
:10231000661F771F881F991F1A9469F7609570953B
:10232000809590959B01AC01BD01CF010895EE0F02
:10233000FF1F0590F491E02D0994CF93DF93823035
:10234000910510F482E090E0E091D003F091D10388
:1023500020E030E0C0E0D0E0309711F140815181C1
:1023600048175907C0F04817590761F482819381D3
:10237000209719F09B838A832BC09093D10380937D
:10238000D00326C02115310519F04217530718F460
:102390009A01BE01DF01EF010280F381E02DDCCF65
:1023A0002115310509F1281B390B2430310590F432
:1023B00012968D919C9113976115710521F0FB0187
:1023C0009383828304C09093D1038093D003FD0153
:1023D000329644C0FD01E20FF31F81939193225086
:1023E00031092D933C933AC02091CE033091CF0315
:1023F000232B41F420911C0130911D013093CF0318
:102400002093CE0320911A0130911B012115310533
:1024100041F42DB73EB740911E0150911F01241B7E
:10242000350BE091CE03F091CF03E217F307A0F450
:102430002E1B3F0B2817390778F0AC014E5F5F4F1A
:102440002417350748F04E0F5F1F5093CF0340937A
:10245000CE038193919302C0E0E0F0E0CF01DF91E1
:10246000CF9108950F931F93CF93DF93009709F4B3
:102470008CC0FC013297138212820091D00310911C
:10248000D1030115110581F420813181820F931F41
:102490002091CE033091CF032817390779F5F093B7
:1024A000CF03E093CE0371C0D80140E050E0AE17F7
:1024B000BF0750F412962D913C911397AD01211551
:1024C000310509F1D901F3CF9D01DA01338322836C
:1024D00060817181860F971F8217930769F4EC0161
:1024E00028813981260F371F2E5F3F4F318320838C
:1024F0008A819B8193838283452B29F4F093D103B6
:10250000E093D00342C01396FC93EE931297ED0133
:10251000499159919E01240F351FE217F30771F479
:1025200080819181840F951F029611969C938E93C2
:102530008281938113969C938E931297E0E0F0E052
:10254000D80112968D919C911397009719F0F8017C
:102550008C01F6CF8D919C9198012E5F3F4F820F99
:10256000931F2091CE033091CF032817390769F4C8
:10257000309729F41092D1031092D00302C0138235
:1025800012821093CF030093CE03DF91CF911F915E
:102590000F91089581E090E0F8940C94F012FB0103
:1025A000DC010D900020E9F7119701900D920020B9
:1025B000E1F70895FB01DC0101900D920020E1F7A5
:1025C0000895FB01DC014150504048F001900D920C
:1025D0000020C9F701C01D9241505040E0F7089516
:1025E00010E0CBE7D0E004C0FE010E9497112196D5
:0A25F000CC37D107C9F7F894FFCFEC
:1025FA007F01850187018A018D019001930196016E
:10260A0099019C019F01A201A5010000D20380004B
:10261A00000000006D01A600D100B4010201E00033
:10262A00F40000000000AE037E03DE035A03200319
:10263A006A035B0300000000D9072604E103800552
:10264A00E9030000000000000000E1036B016B01D8
:10265A002D2D3E4D6963726F33000D0A003A006EEC
:10266A00616E00696E66006F7666002C002F006747
:10267A00686F737400480050300050310056700083
:10268A005673005431005432005846005946005AD5
:10269A004600514D00414D004D4D41383435310011
:1026AA002046524D20005531005532002046524DE9
:0426BA002055330074
:00000001FF
